{
  "address": "0x5FbDB2315678afecb367f032d93F642f64180aa3",
  "abi": [
    {
      "inputs": [
        {
          "internalType": "address[]",
          "name": "_owners",
          "type": "address[]"
        },
        {
          "internalType": "uint256",
          "name": "numConfirmationRequired",
          "type": "uint256"
        }
      ],
      "stateMutability": "nonpayable",
      "type": "constructor"
    },
    {
      "inputs": [],
      "name": "DocumentStorage_Error_AlreadyConfirm",
      "type": "error"
    },
    {
      "inputs": [],
      "name": "DocumentStorage_Error_InvalidOwner",
      "type": "error"
    },
    {
      "inputs": [],
      "name": "DocumentStorage_Error_InvalidTransactionId",
      "type": "error"
    },
    {
      "inputs": [],
      "name": "DocumentStorage_Error_InvalidVersion",
      "type": "error"
    },
    {
      "inputs": [],
      "name": "DocumentStorage_Error_TransactionAlreadyExecute",
      "type": "error"
    },
    {
      "anonymous": false,
      "inputs": [
        {
          "indexed": true,
          "internalType": "uint256",
          "name": "transactionId",
          "type": "uint256"
        }
      ],
      "name": "DocumentAdded",
      "type": "event"
    },
    {
      "anonymous": false,
      "inputs": [
        {
          "indexed": true,
          "internalType": "uint256",
          "name": "transactionId",
          "type": "uint256"
        }
      ],
      "name": "TransactionConfirmed",
      "type": "event"
    },
    {
      "anonymous": false,
      "inputs": [
        {
          "indexed": true,
          "internalType": "uint256",
          "name": "transactionId",
          "type": "uint256"
        },
        {
          "components": [
            {
              "internalType": "string",
              "name": "name",
              "type": "string"
            },
            {
              "internalType": "string",
              "name": "hash",
              "type": "string"
            },
            {
              "internalType": "uint256",
              "name": "timestamp",
              "type": "uint256"
            }
          ],
          "indexed": false,
          "internalType": "struct DocumentStorage.Document",
          "name": "document",
          "type": "tuple"
        }
      ],
      "name": "TransactionSubmitted",
      "type": "event"
    },
    {
      "inputs": [
        {
          "internalType": "uint256",
          "name": "transactionId",
          "type": "uint256"
        }
      ],
      "name": "confirmTransaction",
      "outputs": [],
      "stateMutability": "nonpayable",
      "type": "function"
    },
    {
      "inputs": [
        {
          "internalType": "uint256",
          "name": "",
          "type": "uint256"
        }
      ],
      "name": "documents",
      "outputs": [
        {
          "internalType": "string",
          "name": "name",
          "type": "string"
        },
        {
          "internalType": "string",
          "name": "hash",
          "type": "string"
        },
        {
          "internalType": "uint256",
          "name": "timestamp",
          "type": "uint256"
        }
      ],
      "stateMutability": "view",
      "type": "function"
    },
    {
      "inputs": [
        {
          "internalType": "uint256",
          "name": "transactionId",
          "type": "uint256"
        }
      ],
      "name": "executeTransaction",
      "outputs": [],
      "stateMutability": "nonpayable",
      "type": "function"
    },
    {
      "inputs": [
        {
          "internalType": "uint256",
          "name": "version",
          "type": "uint256"
        }
      ],
      "name": "getDocument",
      "outputs": [
        {
          "components": [
            {
              "internalType": "string",
              "name": "name",
              "type": "string"
            },
            {
              "internalType": "string",
              "name": "hash",
              "type": "string"
            },
            {
              "internalType": "uint256",
              "name": "timestamp",
              "type": "uint256"
            }
          ],
          "internalType": "struct DocumentStorage.Document",
          "name": "",
          "type": "tuple"
        }
      ],
      "stateMutability": "view",
      "type": "function"
    },
    {
      "inputs": [],
      "name": "getDocuments",
      "outputs": [
        {
          "components": [
            {
              "internalType": "string",
              "name": "name",
              "type": "string"
            },
            {
              "internalType": "string",
              "name": "hash",
              "type": "string"
            },
            {
              "internalType": "uint256",
              "name": "timestamp",
              "type": "uint256"
            }
          ],
          "internalType": "struct DocumentStorage.Document[]",
          "name": "",
          "type": "tuple[]"
        }
      ],
      "stateMutability": "view",
      "type": "function"
    },
    {
      "inputs": [
        {
          "internalType": "uint256",
          "name": "",
          "type": "uint256"
        },
        {
          "internalType": "address",
          "name": "",
          "type": "address"
        }
      ],
      "name": "isConfirmed",
      "outputs": [
        {
          "internalType": "bool",
          "name": "",
          "type": "bool"
        }
      ],
      "stateMutability": "view",
      "type": "function"
    },
    {
      "inputs": [
        {
          "internalType": "address",
          "name": "",
          "type": "address"
        }
      ],
      "name": "isOwner",
      "outputs": [
        {
          "internalType": "bool",
          "name": "",
          "type": "bool"
        }
      ],
      "stateMutability": "view",
      "type": "function"
    },
    {
      "inputs": [],
      "name": "num_confirmation",
      "outputs": [
        {
          "internalType": "uint256",
          "name": "",
          "type": "uint256"
        }
      ],
      "stateMutability": "view",
      "type": "function"
    },
    {
      "inputs": [
        {
          "internalType": "uint256",
          "name": "",
          "type": "uint256"
        }
      ],
      "name": "owners",
      "outputs": [
        {
          "internalType": "address",
          "name": "",
          "type": "address"
        }
      ],
      "stateMutability": "view",
      "type": "function"
    },
    {
      "inputs": [
        {
          "components": [
            {
              "internalType": "string",
              "name": "name",
              "type": "string"
            },
            {
              "internalType": "string",
              "name": "hash",
              "type": "string"
            },
            {
              "internalType": "uint256",
              "name": "timestamp",
              "type": "uint256"
            }
          ],
          "internalType": "struct DocumentStorage.Document",
          "name": "document",
          "type": "tuple"
        }
      ],
      "name": "submitTransaction",
      "outputs": [],
      "stateMutability": "nonpayable",
      "type": "function"
    },
    {
      "inputs": [
        {
          "internalType": "uint256",
          "name": "",
          "type": "uint256"
        }
      ],
      "name": "transactions",
      "outputs": [
        {
          "components": [
            {
              "internalType": "string",
              "name": "name",
              "type": "string"
            },
            {
              "internalType": "string",
              "name": "hash",
              "type": "string"
            },
            {
              "internalType": "uint256",
              "name": "timestamp",
              "type": "uint256"
            }
          ],
          "internalType": "struct DocumentStorage.Document",
          "name": "document",
          "type": "tuple"
        },
        {
          "internalType": "bool",
          "name": "executed",
          "type": "bool"
        }
      ],
      "stateMutability": "view",
      "type": "function"
    }
  ],
  "transactionHash": "0x378abd0de7d1a6adc3913301e9d201f611a0892e30388674f117c00e1b9a46cb",
  "args": [
    [
      "0x22a03ACb0C51C8325C4444965351Aa6D03768780",
      "0xF3B4C77E88998894542A5Df6Fe3FA18F167E8cE2"
    ],
    2
  ],
  "numDeployments": 1,
  "solcInputHash": "ad4308acca269a8f3d2f58b38f090593",
  "bytecode": "0x60806040523480156200001157600080fd5b506040516200205c3803806200205c8339818101604052810190620000379190620004bd565b80825110156200007e576040517f08c379a0000000000000000000000000000000000000000000000000000000008152600401620000759062000584565b60405180910390fd5b8060028190555060005b82518110156200028b57600073ffffffffffffffffffffffffffffffffffffffff16838281518110620000c057620000bf620005a6565b5b602002602001015173ffffffffffffffffffffffffffffffffffffffff161480620001515750600160008483815181106200010057620000ff620005a6565b5b602002602001015173ffffffffffffffffffffffffffffffffffffffff1673ffffffffffffffffffffffffffffffffffffffff16815260200190815260200160002060009054906101000a900460ff165b1562000189576040517f1d30de0400000000000000000000000000000000000000000000000000000000815260040160405180910390fd5b6001806000858481518110620001a457620001a3620005a6565b5b602002602001015173ffffffffffffffffffffffffffffffffffffffff1673ffffffffffffffffffffffffffffffffffffffff16815260200190815260200160002060006101000a81548160ff0219169083151502179055506000838281518110620002155762000214620005a6565b5b60200260200101519080600181540180825580915050600190039060005260206000200160009091909190916101000a81548173ffffffffffffffffffffffffffffffffffffffff021916908373ffffffffffffffffffffffffffffffffffffffff160217905550808060010191505062000088565b505050620005d5565b6000604051905090565b600080fd5b600080fd5b600080fd5b6000601f19601f8301169050919050565b7f4e487b7100000000000000000000000000000000000000000000000000000000600052604160045260246000fd5b620002f882620002ad565b810181811067ffffffffffffffff821117156200031a5762000319620002be565b5b80604052505050565b60006200032f62000294565b90506200033d8282620002ed565b919050565b600067ffffffffffffffff82111562000360576200035f620002be565b5b602082029050602081019050919050565b600080fd5b600073ffffffffffffffffffffffffffffffffffffffff82169050919050565b6000620003a38262000376565b9050919050565b620003b58162000396565b8114620003c157600080fd5b50565b600081519050620003d581620003aa565b92915050565b6000620003f2620003ec8462000342565b62000323565b9050808382526020820190506020840283018581111562000418576200041762000371565b5b835b81811015620004455780620004308882620003c4565b8452602084019350506020810190506200041a565b5050509392505050565b600082601f830112620004675762000466620002a8565b5b815162000479848260208601620003db565b91505092915050565b6000819050919050565b620004978162000482565b8114620004a357600080fd5b50565b600081519050620004b7816200048c565b92915050565b60008060408385031215620004d757620004d66200029e565b5b600083015167ffffffffffffffff811115620004f857620004f7620002a3565b5b62000506858286016200044f565b92505060206200051985828601620004a6565b9150509250929050565b600082825260208201905092915050565b7f496e76616c6964206e756d626572206f66206f776e6572730000000000000000600082015250565b60006200056c60188362000523565b9150620005798262000534565b602082019050919050565b600060208201905081810360008301526200059f816200055d565b9050919050565b7f4e487b7100000000000000000000000000000000000000000000000000000000600052603260045260246000fd5b611a7780620005e56000396000f3fe608060405234801561001057600080fd5b50600436106100a85760003560e01c80639ace38c2116100715780639ace38c214610189578063c01a8c84146101ba578063c2ed2b05146101d6578063ccf60e0114610208578063ee22610b14610226578063ef2d870014610242576100a8565b80627f1903146100ad578063025e7c27146100c95780632f54bf6e146100f95780633f9b250a1461012957806380f59a6514610159575b600080fd5b6100c760048036038101906100c291906111bd565b610260565b005b6100e360048036038101906100de9190611206565b61034c565b6040516100f09190611274565b60405180910390f35b610113600480360381019061010e91906112bb565b61038b565b6040516101209190611303565b60405180910390f35b610143600480360381019061013e9190611206565b6103ab565b6040516101509190611403565b60405180910390f35b610173600480360381019061016e9190611425565b610560565b6040516101809190611303565b60405180910390f35b6101a3600480360381019061019e9190611206565b61058f565b6040516101b1929190611465565b60405180910390f35b6101d460048036038101906101cf9190611206565b610708565b005b6101f060048036038101906101eb9190611206565b610890565b6040516101ff939291906114ee565b60405180910390f35b6102106109da565b60405161021d9190611533565b60405180910390f35b610240600480360381019061023b9190611206565b6109e0565b005b61024a610cbd565b6040516102579190611667565b60405180910390f35b600060048054905090506004604051806040016040528084815260200160001515815250908060018154018082558091505060019003906000526020600020906004020160009091909190915060008201518160000160008201518160000190816102cb9190611895565b5060208201518160010190816102e19190611895565b5060408201518160020155505060208201518160030160006101000a81548160ff0219169083151502179055505050807fc1460b00c34a5aec004b2b52d711121b351c6eb20a226df721f01bcc30dd9858836040516103409190611403565b60405180910390a25050565b6000818154811061035c57600080fd5b906000526020600020016000915054906101000a900473ffffffffffffffffffffffffffffffffffffffff1681565b60016020528060005260406000206000915054906101000a900460ff1681565b6103b3610f66565b6005805490508211156103f2576040517f2e713ed200000000000000000000000000000000000000000000000000000000815260040160405180910390fd5b60056001836104019190611996565b81548110610412576104116119ca565b5b906000526020600020906003020160405180606001604052908160008201805461043b906116b8565b80601f0160208091040260200160405190810160405280929190818152602001828054610467906116b8565b80156104b45780601f10610489576101008083540402835291602001916104b4565b820191906000526020600020905b81548152906001019060200180831161049757829003601f168201915b505050505081526020016001820180546104cd906116b8565b80601f01602080910402602001604051908101604052809291908181526020018280546104f9906116b8565b80156105465780601f1061051b57610100808354040283529160200191610546565b820191906000526020600020905b81548152906001019060200180831161052957829003601f168201915b505050505081526020016002820154815250509050919050565b60036020528160005260406000206020528060005260406000206000915091509054906101000a900460ff1681565b6004818154811061059f57600080fd5b9060005260206000209060040201600091509050806000016040518060600160405290816000820180546105d2906116b8565b80601f01602080910402602001604051908101604052809291908181526020018280546105fe906116b8565b801561064b5780601f106106205761010080835404028352916020019161064b565b820191906000526020600020905b81548152906001019060200180831161062e57829003601f168201915b50505050508152602001600182018054610664906116b8565b80601f0160208091040260200160405190810160405280929190818152602001828054610690906116b8565b80156106dd5780601f106106b2576101008083540402835291602001916106dd565b820191906000526020600020905b8154815290600101906020018083116106c057829003601f168201915b50505050508152602001600282015481525050908060030160009054906101000a900460ff16905082565b6004805490508110610746576040517f2e78732500000000000000000000000000000000000000000000000000000000815260040160405180910390fd5b6003600082815260200190815260200160002060003373ffffffffffffffffffffffffffffffffffffffff1673ffffffffffffffffffffffffffffffffffffffff16815260200190815260200160002060009054906101000a900460ff166108165760016003600083815260200190815260200160002060003373ffffffffffffffffffffffffffffffffffffffff1673ffffffffffffffffffffffffffffffffffffffff16815260200190815260200160002060006101000a81548160ff021916908315150217905550610848565b6040517f66345b1100000000000000000000000000000000000000000000000000000000815260040160405180910390fd5b807fef524c298d730e7d5714dbe2fce9d4eca7de755a12628704719170afda39678b60405160405180910390a261087e81610e4a565b1561088d5761088c816109e0565b5b50565b600581815481106108a057600080fd5b90600052602060002090600302016000915090508060000180546108c3906116b8565b80601f01602080910402602001604051908101604052809291908181526020018280546108ef906116b8565b801561093c5780601f106109115761010080835404028352916020019161093c565b820191906000526020600020905b81548152906001019060200180831161091f57829003601f168201915b505050505090806001018054610951906116b8565b80601f016020809104026020016040519081016040528092919081815260200182805461097d906116b8565b80156109ca5780601f1061099f576101008083540402835291602001916109ca565b820191906000526020600020905b8154815290600101906020018083116109ad57829003601f168201915b5050505050908060020154905083565b60025481565b6004805490508110610a1e576040517f2e78732500000000000000000000000000000000000000000000000000000000815260040160405180910390fd5b60048181548110610a3257610a316119ca565b5b906000526020600020906004020160030160009054906101000a900460ff1615610a88576040517f81f9701f00000000000000000000000000000000000000000000000000000000815260040160405180910390fd5b600160048281548110610a9e57610a9d6119ca565b5b906000526020600020906004020160030160006101000a81548160ff021916908315150217905550600060048281548110610adc57610adb6119ca565b5b9060005260206000209060040201600001604051806060016040529081600082018054610b08906116b8565b80601f0160208091040260200160405190810160405280929190818152602001828054610b34906116b8565b8015610b815780601f10610b5657610100808354040283529160200191610b81565b820191906000526020600020905b815481529060010190602001808311610b6457829003601f168201915b50505050508152602001600182018054610b9a906116b8565b80601f0160208091040260200160405190810160405280929190818152602001828054610bc6906116b8565b8015610c135780601f10610be857610100808354040283529160200191610c13565b820191906000526020600020905b815481529060010190602001808311610bf657829003601f168201915b50505050508152602001600282015481525050905060058190806001815401808255809150506001900390600052602060002090600302016000909190919091506000820151816000019081610c699190611895565b506020820151816001019081610c7f9190611895565b50604082015181600201555050817f1436ef0a63d102072b70744adedc4e9c88487529e51f8624fc3ab50904472f1e60405160405180910390a25050565b60606005805480602002602001604051908101604052809291908181526020016000905b82821015610e415783829060005260206000209060030201604051806060016040529081600082018054610d14906116b8565b80601f0160208091040260200160405190810160405280929190818152602001828054610d40906116b8565b8015610d8d5780601f10610d6257610100808354040283529160200191610d8d565b820191906000526020600020905b815481529060010190602001808311610d7057829003601f168201915b50505050508152602001600182018054610da6906116b8565b80601f0160208091040260200160405190810160405280929190818152602001828054610dd2906116b8565b8015610e1f5780601f10610df457610100808354040283529160200191610e1f565b820191906000526020600020905b815481529060010190602001808311610e0257829003601f168201915b5050505050815260200160028201548152505081526020019060010190610ce1565b50505050905090565b60006004805490508210610e8a576040517f2e78732500000000000000000000000000000000000000000000000000000000815260040160405180910390fd5b6000805b600080549050811015610f5757600360008581526020019081526020016000206000808381548110610ec357610ec26119ca565b5b9060005260206000200160009054906101000a900473ffffffffffffffffffffffffffffffffffffffff1673ffffffffffffffffffffffffffffffffffffffff1673ffffffffffffffffffffffffffffffffffffffff16815260200190815260200160002060009054906101000a900460ff1615610f4a578180610f46906119f9565b9250505b8080600101915050610e8e565b50600254811015915050919050565b60405180606001604052806060815260200160608152602001600081525090565b6000604051905090565b600080fd5b600080fd5b600080fd5b6000601f19601f8301169050919050565b7f4e487b7100000000000000000000000000000000000000000000000000000000600052604160045260246000fd5b610fe982610fa0565b810181811067ffffffffffffffff8211171561100857611007610fb1565b5b80604052505050565b600061101b610f87565b90506110278282610fe0565b919050565b600080fd5b600080fd5b600080fd5b600067ffffffffffffffff82111561105657611055610fb1565b5b61105f82610fa0565b9050602081019050919050565b82818337600083830152505050565b600061108e6110898461103b565b611011565b9050828152602081018484840111156110aa576110a9611036565b5b6110b584828561106c565b509392505050565b600082601f8301126110d2576110d1611031565b5b81356110e284826020860161107b565b91505092915050565b6000819050919050565b6110fe816110eb565b811461110957600080fd5b50565b60008135905061111b816110f5565b92915050565b60006060828403121561113757611136610f9b565b5b6111416060611011565b9050600082013567ffffffffffffffff8111156111615761116061102c565b5b61116d848285016110bd565b600083015250602082013567ffffffffffffffff8111156111915761119061102c565b5b61119d848285016110bd565b60208301525060406111b18482850161110c565b60408301525092915050565b6000602082840312156111d3576111d2610f91565b5b600082013567ffffffffffffffff8111156111f1576111f0610f96565b5b6111fd84828501611121565b91505092915050565b60006020828403121561121c5761121b610f91565b5b600061122a8482850161110c565b91505092915050565b600073ffffffffffffffffffffffffffffffffffffffff82169050919050565b600061125e82611233565b9050919050565b61126e81611253565b82525050565b60006020820190506112896000830184611265565b92915050565b61129881611253565b81146112a357600080fd5b50565b6000813590506112b58161128f565b92915050565b6000602082840312156112d1576112d0610f91565b5b60006112df848285016112a6565b91505092915050565b60008115159050919050565b6112fd816112e8565b82525050565b600060208201905061131860008301846112f4565b92915050565b600081519050919050565b600082825260208201905092915050565b60005b8381101561135857808201518184015260208101905061133d565b60008484015250505050565b600061136f8261131e565b6113798185611329565b935061138981856020860161133a565b61139281610fa0565b840191505092915050565b6113a6816110eb565b82525050565b600060608301600083015184820360008601526113c98282611364565b915050602083015184820360208601526113e38282611364565b91505060408301516113f8604086018261139d565b508091505092915050565b6000602082019050818103600083015261141d81846113ac565b905092915050565b6000806040838503121561143c5761143b610f91565b5b600061144a8582860161110c565b925050602061145b858286016112a6565b9150509250929050565b6000604082019050818103600083015261147f81856113ac565b905061148e60208301846112f4565b9392505050565b600082825260208201905092915050565b60006114b18261131e565b6114bb8185611495565b93506114cb81856020860161133a565b6114d481610fa0565b840191505092915050565b6114e8816110eb565b82525050565b6000606082019050818103600083015261150881866114a6565b9050818103602083015261151c81856114a6565b905061152b60408301846114df565b949350505050565b600060208201905061154860008301846114df565b92915050565b600081519050919050565b600082825260208201905092915050565b6000819050602082019050919050565b600060608301600083015184820360008601526115978282611364565b915050602083015184820360208601526115b18282611364565b91505060408301516115c6604086018261139d565b508091505092915050565b60006115dd838361157a565b905092915050565b6000602082019050919050565b60006115fd8261154e565b6116078185611559565b9350836020820285016116198561156a565b8060005b85811015611655578484038952815161163685826115d1565b9450611641836115e5565b925060208a0199505060018101905061161d565b50829750879550505050505092915050565b6000602082019050818103600083015261168181846115f2565b905092915050565b7f4e487b7100000000000000000000000000000000000000000000000000000000600052602260045260246000fd5b600060028204905060018216806116d057607f821691505b6020821081036116e3576116e2611689565b5b50919050565b60008190508160005260206000209050919050565b60006020601f8301049050919050565b600082821b905092915050565b60006008830261174b7fffffffffffffffffffffffffffffffffffffffffffffffffffffffffffffffff8261170e565b611755868361170e565b95508019841693508086168417925050509392505050565b6000819050919050565b600061179261178d611788846110eb565b61176d565b6110eb565b9050919050565b6000819050919050565b6117ac83611777565b6117c06117b882611799565b84845461171b565b825550505050565b600090565b6117d56117c8565b6117e08184846117a3565b505050565b5b81811015611804576117f96000826117cd565b6001810190506117e6565b5050565b601f8211156118495761181a816116e9565b611823846116fe565b81016020851015611832578190505b61184661183e856116fe565b8301826117e5565b50505b505050565b600082821c905092915050565b600061186c6000198460080261184e565b1980831691505092915050565b6000611885838361185b565b9150826002028217905092915050565b61189e8261131e565b67ffffffffffffffff8111156118b7576118b6610fb1565b5b6118c182546116b8565b6118cc828285611808565b600060209050601f8311600181146118ff57600084156118ed578287015190505b6118f78582611879565b86555061195f565b601f19841661190d866116e9565b60005b8281101561193557848901518255600182019150602085019450602081019050611910565b86831015611952578489015161194e601f89168261185b565b8355505b6001600288020188555050505b505050505050565b7f4e487b7100000000000000000000000000000000000000000000000000000000600052601160045260246000fd5b60006119a1826110eb565b91506119ac836110eb565b92508282039050818111156119c4576119c3611967565b5b92915050565b7f4e487b7100000000000000000000000000000000000000000000000000000000600052603260045260246000fd5b6000611a04826110eb565b91507fffffffffffffffffffffffffffffffffffffffffffffffffffffffffffffffff8203611a3657611a35611967565b5b60018201905091905056fea2646970667358221220adf80e8605a3e9a0eb23e8cce6f4754db4fe1b0097b8f393d8afa636e406841c64736f6c63430008180033",
  "devdoc": {
    "kind": "dev",
    "methods": {},
    "version": 1
  },
  "userdoc": {
    "kind": "user",
    "methods": {},
    "version": 1
  },
  "storageLayout": {
    "storage": [
      {
        "astId": 29,
        "contract": "contracts/DocumentStorage.sol:DocumentStorage",
        "label": "owners",
        "offset": 0,
        "slot": "0",
        "type": "t_array(t_address)dyn_storage"
      },
      {
        "astId": 33,
        "contract": "contracts/DocumentStorage.sol:DocumentStorage",
        "label": "isOwner",
        "offset": 0,
        "slot": "1",
        "type": "t_mapping(t_address,t_bool)"
      },
      {
        "astId": 35,
        "contract": "contracts/DocumentStorage.sol:DocumentStorage",
        "label": "num_confirmation",
        "offset": 0,
        "slot": "2",
        "type": "t_uint256"
      },
      {
        "astId": 41,
        "contract": "contracts/DocumentStorage.sol:DocumentStorage",
        "label": "isConfirmed",
        "offset": 0,
        "slot": "3",
        "type": "t_mapping(t_uint256,t_mapping(t_address,t_bool))"
      },
      {
        "astId": 45,
        "contract": "contracts/DocumentStorage.sol:DocumentStorage",
        "label": "transactions",
        "offset": 0,
        "slot": "4",
        "type": "t_array(t_struct(Transaction)62_storage)dyn_storage"
      },
      {
        "astId": 49,
        "contract": "contracts/DocumentStorage.sol:DocumentStorage",
        "label": "documents",
        "offset": 0,
        "slot": "5",
        "type": "t_array(t_struct(Document)56_storage)dyn_storage"
      }
    ],
    "types": {
      "t_address": {
        "encoding": "inplace",
        "label": "address",
        "numberOfBytes": "20"
      },
      "t_array(t_address)dyn_storage": {
        "base": "t_address",
        "encoding": "dynamic_array",
        "label": "address[]",
        "numberOfBytes": "32"
      },
      "t_array(t_struct(Document)56_storage)dyn_storage": {
        "base": "t_struct(Document)56_storage",
        "encoding": "dynamic_array",
        "label": "struct DocumentStorage.Document[]",
        "numberOfBytes": "32"
      },
      "t_array(t_struct(Transaction)62_storage)dyn_storage": {
        "base": "t_struct(Transaction)62_storage",
        "encoding": "dynamic_array",
        "label": "struct DocumentStorage.Transaction[]",
        "numberOfBytes": "32"
      },
      "t_bool": {
        "encoding": "inplace",
        "label": "bool",
        "numberOfBytes": "1"
      },
      "t_mapping(t_address,t_bool)": {
        "encoding": "mapping",
        "key": "t_address",
        "label": "mapping(address => bool)",
        "numberOfBytes": "32",
        "value": "t_bool"
      },
      "t_mapping(t_uint256,t_mapping(t_address,t_bool))": {
        "encoding": "mapping",
        "key": "t_uint256",
        "label": "mapping(uint256 => mapping(address => bool))",
        "numberOfBytes": "32",
        "value": "t_mapping(t_address,t_bool)"
      },
      "t_string_storage": {
        "encoding": "bytes",
        "label": "string",
        "numberOfBytes": "32"
      },
      "t_struct(Document)56_storage": {
        "encoding": "inplace",
        "label": "struct DocumentStorage.Document",
        "members": [
          {
            "astId": 51,
            "contract": "contracts/DocumentStorage.sol:DocumentStorage",
            "label": "name",
            "offset": 0,
            "slot": "0",
            "type": "t_string_storage"
          },
          {
            "astId": 53,
            "contract": "contracts/DocumentStorage.sol:DocumentStorage",
            "label": "hash",
            "offset": 0,
            "slot": "1",
            "type": "t_string_storage"
          },
          {
            "astId": 55,
            "contract": "contracts/DocumentStorage.sol:DocumentStorage",
            "label": "timestamp",
            "offset": 0,
            "slot": "2",
            "type": "t_uint256"
          }
        ],
        "numberOfBytes": "96"
      },
      "t_struct(Transaction)62_storage": {
        "encoding": "inplace",
        "label": "struct DocumentStorage.Transaction",
        "members": [
          {
            "astId": 59,
            "contract": "contracts/DocumentStorage.sol:DocumentStorage",
            "label": "document",
            "offset": 0,
            "slot": "0",
            "type": "t_struct(Document)56_storage"
          },
          {
            "astId": 61,
            "contract": "contracts/DocumentStorage.sol:DocumentStorage",
            "label": "executed",
            "offset": 0,
            "slot": "3",
            "type": "t_bool"
          }
        ],
        "numberOfBytes": "128"
      },
      "t_uint256": {
        "encoding": "inplace",
        "label": "uint256",
        "numberOfBytes": "32"
      }
    }
  }
}