{
  "address": "0xB7e45c041f866ce5279eD023416e298d76f0f040",
  "abi": [
    {
      "inputs": [],
      "stateMutability": "nonpayable",
      "type": "constructor"
    },
    {
      "inputs": [],
      "name": "AccountStorage_NotOwner",
      "type": "error"
    },
    {
      "inputs": [],
      "name": "i_owner",
      "outputs": [
        {
          "internalType": "address",
          "name": "",
          "type": "address"
        }
      ],
      "stateMutability": "view",
      "type": "function"
    },
    {
      "inputs": [
        {
          "internalType": "string",
          "name": "",
          "type": "string"
        }
      ],
      "name": "s_accountStorage",
      "outputs": [
        {
          "internalType": "address",
          "name": "walletAddress",
          "type": "address"
        },
        {
          "components": [
            {
              "internalType": "string",
              "name": "label",
              "type": "string"
            },
            {
              "internalType": "string[][]",
              "name": "descriptors",
              "type": "string[][]"
            }
          ],
          "internalType": "struct AccountStorage.LabeledFaceDescriptors",
          "name": "labeledFaceDescriptors",
          "type": "tuple"
        }
      ],
      "stateMutability": "view",
      "type": "function"
    },
    {
      "inputs": [
        {
          "internalType": "string",
          "name": "ensDomainName",
          "type": "string"
        },
        {
          "components": [
            {
              "internalType": "address",
              "name": "walletAddress",
              "type": "address"
            },
            {
              "components": [
                {
                  "internalType": "string",
                  "name": "label",
                  "type": "string"
                },
                {
                  "internalType": "string[][]",
                  "name": "descriptors",
                  "type": "string[][]"
                }
              ],
              "internalType": "struct AccountStorage.LabeledFaceDescriptors",
              "name": "labeledFaceDescriptors",
              "type": "tuple"
            }
          ],
          "internalType": "struct AccountStorage.UserProfile",
          "name": "user",
          "type": "tuple"
        }
      ],
      "name": "updateStorage",
      "outputs": [],
      "stateMutability": "nonpayable",
      "type": "function"
    }
  ],
  "transactionHash": "0xad0c1a1dac7801837c2b68b85338029524874d2003f0b7d1d72151975d03c01e",
  "args": [],
  "numDeployments": 2,
  "solcInputHash": "9f8a61b28aa18c6ea3cdc9ea421f04ec",
  "bytecode": "0x60a060405234801561001057600080fd5b503373ffffffffffffffffffffffffffffffffffffffff1660808173ffffffffffffffffffffffffffffffffffffffff1681525050608051611065610060600039600061037401526110656000f3fe608060405234801561001057600080fd5b50600436106100415760003560e01c806398d75b9c14610046578063d61c3ce714610077578063dba6335f14610093575b600080fd5b610060600480360381019061005b919061066f565b6100b1565b60405161006e929190610940565b60405180910390f35b610091600480360381019061008c9190610c61565b6102c7565b005b61009b610372565b6040516100a89190610cd9565b60405180910390f35b6000818051602081018201805184825260208301602085012081835280955050505050506000915090508060000160009054906101000a900473ffffffffffffffffffffffffffffffffffffffff16908060010160405180604001604052908160008201805461012090610d23565b80601f016020809104026020016040519081016040528092919081815260200182805461014c90610d23565b80156101995780601f1061016e57610100808354040283529160200191610199565b820191906000526020600020905b81548152906001019060200180831161017c57829003601f168201915b5050505050815260200160018201805480602002602001604051908101604052809291908181526020016000905b828210156102ba57838290600052602060002001805480602002602001604051908101604052809291908181526020016000905b828210156102a757838290600052602060002001805461021a90610d23565b80601f016020809104026020016040519081016040528092919081815260200182805461024690610d23565b80156102935780601f1061026857610100808354040283529160200191610293565b820191906000526020600020905b81548152906001019060200180831161027657829003601f168201915b5050505050815260200190600101906101fb565b50505050815260200190600101906101c7565b5050505081525050905082565b806000836040516102d89190610d90565b908152602001604051809103902060008201518160000160006101000a81548173ffffffffffffffffffffffffffffffffffffffff021916908373ffffffffffffffffffffffffffffffffffffffff160217905550602082015181600101600082015181600001908161034b9190610f5d565b506020820151816001019080519060200190610368929190610396565b5050509050505050565b7f000000000000000000000000000000000000000000000000000000000000000081565b8280548282559060005260206000209081019282156103e5579160200282015b828111156103e45782518290805190602001906103d49291906103f6565b50916020019190600101906103b6565b5b5090506103f2919061044f565b5090565b82805482825590600052602060002090810192821561043e579160200282015b8281111561043d57825182908161042d9190610f5d565b5091602001919060010190610416565b5b50905061044b9190610473565b5090565b5b8082111561046f57600081816104669190610497565b50600101610450565b5090565b5b80821115610493576000818161048a91906104b8565b50600101610474565b5090565b50805460008255906000526020600020908101906104b59190610473565b50565b5080546104c490610d23565b6000825580601f106104d657506104f5565b601f0160209004906000526020600020908101906104f491906104f8565b5b50565b5b808211156105115760008160009055506001016104f9565b5090565b6000604051905090565b600080fd5b600080fd5b600080fd5b600080fd5b6000601f19601f8301169050919050565b7f4e487b7100000000000000000000000000000000000000000000000000000000600052604160045260246000fd5b61057c82610533565b810181811067ffffffffffffffff8211171561059b5761059a610544565b5b80604052505050565b60006105ae610515565b90506105ba8282610573565b919050565b600067ffffffffffffffff8211156105da576105d9610544565b5b6105e382610533565b9050602081019050919050565b82818337600083830152505050565b600061061261060d846105bf565b6105a4565b90508281526020810184848401111561062e5761062d61052e565b5b6106398482856105f0565b509392505050565b600082601f83011261065657610655610529565b5b81356106668482602086016105ff565b91505092915050565b6000602082840312156106855761068461051f565b5b600082013567ffffffffffffffff8111156106a3576106a2610524565b5b6106af84828501610641565b91505092915050565b600073ffffffffffffffffffffffffffffffffffffffff82169050919050565b60006106e3826106b8565b9050919050565b6106f3816106d8565b82525050565b600081519050919050565b600082825260208201905092915050565b60005b83811015610733578082015181840152602081019050610718565b60008484015250505050565b600061074a826106f9565b6107548185610704565b9350610764818560208601610715565b61076d81610533565b840191505092915050565b600081519050919050565b600082825260208201905092915050565b6000819050602082019050919050565b600081519050919050565b600082825260208201905092915050565b6000819050602082019050919050565b60006107dc838361073f565b905092915050565b6000602082019050919050565b60006107fc826107a4565b61080681856107af565b935083602082028501610818856107c0565b8060005b85811015610854578484038952815161083585826107d0565b9450610840836107e4565b925060208a0199505060018101905061081c565b50829750879550505050505092915050565b600061087283836107f1565b905092915050565b6000602082019050919050565b600061089282610778565b61089c8185610783565b9350836020820285016108ae85610794565b8060005b858110156108ea57848403895281516108cb8582610866565b94506108d68361087a565b925060208a019950506001810190506108b2565b50829750879550505050505092915050565b60006040830160008301518482036000860152610919828261073f565b915050602083015184820360208601526109338282610887565b9150508091505092915050565b600060408201905061095560008301856106ea565b818103602083015261096781846108fc565b90509392505050565b600080fd5b600080fd5b610983816106d8565b811461098e57600080fd5b50565b6000813590506109a08161097a565b92915050565b600067ffffffffffffffff8211156109c1576109c0610544565b5b602082029050602081019050919050565b600080fd5b600067ffffffffffffffff8211156109f2576109f1610544565b5b602082029050602081019050919050565b6000610a16610a11846109d7565b6105a4565b90508083825260208201905060208402830185811115610a3957610a386109d2565b5b835b81811015610a8057803567ffffffffffffffff811115610a5e57610a5d610529565b5b808601610a6b8982610641565b85526020850194505050602081019050610a3b565b5050509392505050565b600082601f830112610a9f57610a9e610529565b5b8135610aaf848260208601610a03565b91505092915050565b6000610acb610ac6846109a6565b6105a4565b90508083825260208201905060208402830185811115610aee57610aed6109d2565b5b835b81811015610b3557803567ffffffffffffffff811115610b1357610b12610529565b5b808601610b208982610a8a565b85526020850194505050602081019050610af0565b5050509392505050565b600082601f830112610b5457610b53610529565b5b8135610b64848260208601610ab8565b91505092915050565b600060408284031215610b8357610b82610970565b5b610b8d60406105a4565b9050600082013567ffffffffffffffff811115610bad57610bac610975565b5b610bb984828501610641565b600083015250602082013567ffffffffffffffff811115610bdd57610bdc610975565b5b610be984828501610b3f565b60208301525092915050565b600060408284031215610c0b57610c0a610970565b5b610c1560406105a4565b90506000610c2584828501610991565b600083015250602082013567ffffffffffffffff811115610c4957610c48610975565b5b610c5584828501610b6d565b60208301525092915050565b60008060408385031215610c7857610c7761051f565b5b600083013567ffffffffffffffff811115610c9657610c95610524565b5b610ca285828601610641565b925050602083013567ffffffffffffffff811115610cc357610cc2610524565b5b610ccf85828601610bf5565b9150509250929050565b6000602082019050610cee60008301846106ea565b92915050565b7f4e487b7100000000000000000000000000000000000000000000000000000000600052602260045260246000fd5b60006002820490506001821680610d3b57607f821691505b602082108103610d4e57610d4d610cf4565b5b50919050565b600081905092915050565b6000610d6a826106f9565b610d748185610d54565b9350610d84818560208601610715565b80840191505092915050565b6000610d9c8284610d5f565b915081905092915050565b60008190508160005260206000209050919050565b60006020601f8301049050919050565b600082821b905092915050565b600060088302610e097fffffffffffffffffffffffffffffffffffffffffffffffffffffffffffffffff82610dcc565b610e138683610dcc565b95508019841693508086168417925050509392505050565b6000819050919050565b6000819050919050565b6000610e5a610e55610e5084610e2b565b610e35565b610e2b565b9050919050565b6000819050919050565b610e7483610e3f565b610e88610e8082610e61565b848454610dd9565b825550505050565b600090565b610e9d610e90565b610ea8818484610e6b565b505050565b5b81811015610ecc57610ec1600082610e95565b600181019050610eae565b5050565b601f821115610f1157610ee281610da7565b610eeb84610dbc565b81016020851015610efa578190505b610f0e610f0685610dbc565b830182610ead565b50505b505050565b600082821c905092915050565b6000610f3460001984600802610f16565b1980831691505092915050565b6000610f4d8383610f23565b9150826002028217905092915050565b610f66826106f9565b67ffffffffffffffff811115610f7f57610f7e610544565b5b610f898254610d23565b610f94828285610ed0565b600060209050601f831160018114610fc75760008415610fb5578287015190505b610fbf8582610f41565b865550611027565b601f198416610fd586610da7565b60005b82811015610ffd57848901518255600182019150602085019450602081019050610fd8565b8683101561101a5784890151611016601f891682610f23565b8355505b6001600288020188555050505b50505050505056fea2646970667358221220190bd5cc10f7f5e345d1d4eac15ce06954d9213f08f581d6746e72f45e23e0e664736f6c63430008180033",
  "devdoc": {
    "kind": "dev",
    "methods": {},
    "version": 1
  },
  "userdoc": {
    "kind": "user",
    "methods": {},
    "version": 1
  },
  "storageLayout": {
    "storage": [
      {
        "astId": 21,
        "contract": "contracts/AccoutStorage.sol:AccountStorage",
        "label": "s_accountStorage",
        "offset": 0,
        "slot": "0",
        "type": "t_mapping(t_string_memory_ptr,t_struct(UserProfile)9_storage)"
      }
    ],
    "types": {
      "t_address": {
        "encoding": "inplace",
        "label": "address",
        "numberOfBytes": "20"
      },
      "t_array(t_array(t_string_storage)dyn_storage)dyn_storage": {
        "base": "t_array(t_string_storage)dyn_storage",
        "encoding": "dynamic_array",
        "label": "string[][]",
        "numberOfBytes": "32"
      },
      "t_array(t_string_storage)dyn_storage": {
        "base": "t_string_storage",
        "encoding": "dynamic_array",
        "label": "string[]",
        "numberOfBytes": "32"
      },
      "t_mapping(t_string_memory_ptr,t_struct(UserProfile)9_storage)": {
        "encoding": "mapping",
        "key": "t_string_memory_ptr",
        "label": "mapping(string => struct AccountStorage.UserProfile)",
        "numberOfBytes": "32",
        "value": "t_struct(UserProfile)9_storage"
      },
      "t_string_memory_ptr": {
        "encoding": "bytes",
        "label": "string",
        "numberOfBytes": "32"
      },
      "t_string_storage": {
        "encoding": "bytes",
        "label": "string",
        "numberOfBytes": "32"
      },
      "t_struct(LabeledFaceDescriptors)16_storage": {
        "encoding": "inplace",
        "label": "struct AccountStorage.LabeledFaceDescriptors",
        "members": [
          {
            "astId": 11,
            "contract": "contracts/AccoutStorage.sol:AccountStorage",
            "label": "label",
            "offset": 0,
            "slot": "0",
            "type": "t_string_storage"
          },
          {
            "astId": 15,
            "contract": "contracts/AccoutStorage.sol:AccountStorage",
            "label": "descriptors",
            "offset": 0,
            "slot": "1",
            "type": "t_array(t_array(t_string_storage)dyn_storage)dyn_storage"
          }
        ],
        "numberOfBytes": "64"
      },
      "t_struct(UserProfile)9_storage": {
        "encoding": "inplace",
        "label": "struct AccountStorage.UserProfile",
        "members": [
          {
            "astId": 5,
            "contract": "contracts/AccoutStorage.sol:AccountStorage",
            "label": "walletAddress",
            "offset": 0,
            "slot": "0",
            "type": "t_address"
          },
          {
            "astId": 8,
            "contract": "contracts/AccoutStorage.sol:AccountStorage",
            "label": "labeledFaceDescriptors",
            "offset": 0,
            "slot": "1",
            "type": "t_struct(LabeledFaceDescriptors)16_storage"
          }
        ],
        "numberOfBytes": "96"
      }
    }
  }
}