{
  "address": "0xDbF3531800C490305df6C1aa1A19A282C35802e3",
  "abi": [
    {
      "inputs": [
        {
          "internalType": "address[]",
          "name": "_owners",
          "type": "address[]"
        },
        {
          "internalType": "uint256",
          "name": "numConfirmationRequired",
          "type": "uint256"
        }
      ],
      "stateMutability": "nonpayable",
      "type": "constructor"
    },
    {
      "inputs": [],
      "name": "DocumentStorage_Error_AlreadyConfirm",
      "type": "error"
    },
    {
      "inputs": [],
      "name": "DocumentStorage_Error_InvalidOwner",
      "type": "error"
    },
    {
      "inputs": [],
      "name": "DocumentStorage_Error_InvalidTransactionId",
      "type": "error"
    },
    {
      "inputs": [],
      "name": "DocumentStorage_Error_InvalidVersion",
      "type": "error"
    },
    {
      "inputs": [],
      "name": "DocumentStorage_Error_TransactionAlreadyExecute",
      "type": "error"
    },
    {
      "anonymous": false,
      "inputs": [
        {
          "indexed": true,
          "internalType": "uint256",
          "name": "transactionId",
          "type": "uint256"
        }
      ],
      "name": "DocumentAdded",
      "type": "event"
    },
    {
      "anonymous": false,
      "inputs": [
        {
          "indexed": true,
          "internalType": "uint256",
          "name": "transactionId",
          "type": "uint256"
        }
      ],
      "name": "TransactionConfirmed",
      "type": "event"
    },
    {
      "anonymous": false,
      "inputs": [
        {
          "indexed": true,
          "internalType": "uint256",
          "name": "transactionId",
          "type": "uint256"
        },
        {
          "components": [
            {
              "internalType": "string",
              "name": "name",
              "type": "string"
            },
            {
              "internalType": "string",
              "name": "uri",
              "type": "string"
            },
            {
              "internalType": "string",
              "name": "timestamp",
              "type": "string"
            }
          ],
          "indexed": false,
          "internalType": "struct DocumentStorage.Document",
          "name": "document",
          "type": "tuple"
        }
      ],
      "name": "TransactionSubmitted",
      "type": "event"
    },
    {
      "inputs": [
        {
          "internalType": "uint256",
          "name": "transactionId",
          "type": "uint256"
        }
      ],
      "name": "confirmTransaction",
      "outputs": [],
      "stateMutability": "nonpayable",
      "type": "function"
    },
    {
      "inputs": [
        {
          "internalType": "uint256",
          "name": "",
          "type": "uint256"
        }
      ],
      "name": "documents",
      "outputs": [
        {
          "internalType": "string",
          "name": "name",
          "type": "string"
        },
        {
          "internalType": "string",
          "name": "uri",
          "type": "string"
        },
        {
          "internalType": "string",
          "name": "timestamp",
          "type": "string"
        }
      ],
      "stateMutability": "view",
      "type": "function"
    },
    {
      "inputs": [
        {
          "internalType": "uint256",
          "name": "version",
          "type": "uint256"
        }
      ],
      "name": "getDocument",
      "outputs": [
        {
          "components": [
            {
              "internalType": "string",
              "name": "name",
              "type": "string"
            },
            {
              "internalType": "string",
              "name": "uri",
              "type": "string"
            },
            {
              "internalType": "string",
              "name": "timestamp",
              "type": "string"
            }
          ],
          "internalType": "struct DocumentStorage.Document",
          "name": "",
          "type": "tuple"
        }
      ],
      "stateMutability": "view",
      "type": "function"
    },
    {
      "inputs": [],
      "name": "getLastestDocumentVersion",
      "outputs": [
        {
          "components": [
            {
              "internalType": "string",
              "name": "name",
              "type": "string"
            },
            {
              "internalType": "string",
              "name": "uri",
              "type": "string"
            },
            {
              "internalType": "string",
              "name": "timestamp",
              "type": "string"
            }
          ],
          "internalType": "struct DocumentStorage.Document",
          "name": "",
          "type": "tuple"
        }
      ],
      "stateMutability": "view",
      "type": "function"
    },
    {
      "inputs": [
        {
          "internalType": "uint256",
          "name": "",
          "type": "uint256"
        },
        {
          "internalType": "address",
          "name": "",
          "type": "address"
        }
      ],
      "name": "isConfirmed",
      "outputs": [
        {
          "internalType": "bool",
          "name": "",
          "type": "bool"
        }
      ],
      "stateMutability": "view",
      "type": "function"
    },
    {
      "inputs": [
        {
          "internalType": "address",
          "name": "",
          "type": "address"
        }
      ],
      "name": "isOwner",
      "outputs": [
        {
          "internalType": "bool",
          "name": "",
          "type": "bool"
        }
      ],
      "stateMutability": "view",
      "type": "function"
    },
    {
      "inputs": [],
      "name": "num_confirmation",
      "outputs": [
        {
          "internalType": "uint256",
          "name": "",
          "type": "uint256"
        }
      ],
      "stateMutability": "view",
      "type": "function"
    },
    {
      "inputs": [
        {
          "internalType": "uint256",
          "name": "",
          "type": "uint256"
        }
      ],
      "name": "owners",
      "outputs": [
        {
          "internalType": "address",
          "name": "",
          "type": "address"
        }
      ],
      "stateMutability": "view",
      "type": "function"
    },
    {
      "inputs": [
        {
          "components": [
            {
              "internalType": "string",
              "name": "name",
              "type": "string"
            },
            {
              "internalType": "string",
              "name": "uri",
              "type": "string"
            },
            {
              "internalType": "string",
              "name": "timestamp",
              "type": "string"
            }
          ],
          "internalType": "struct DocumentStorage.Document",
          "name": "document",
          "type": "tuple"
        }
      ],
      "name": "submitTransaction",
      "outputs": [],
      "stateMutability": "nonpayable",
      "type": "function"
    },
    {
      "inputs": [
        {
          "internalType": "uint256",
          "name": "",
          "type": "uint256"
        }
      ],
      "name": "transactions",
      "outputs": [
        {
          "components": [
            {
              "internalType": "string",
              "name": "name",
              "type": "string"
            },
            {
              "internalType": "string",
              "name": "uri",
              "type": "string"
            },
            {
              "internalType": "string",
              "name": "timestamp",
              "type": "string"
            }
          ],
          "internalType": "struct DocumentStorage.Document",
          "name": "document",
          "type": "tuple"
        },
        {
          "internalType": "bool",
          "name": "executed",
          "type": "bool"
        }
      ],
      "stateMutability": "view",
      "type": "function"
    }
  ],
  "transactionHash": "0x9d5842b24d975ca6a0905cc7b01d2cbf9273026753baaa9934889267293f2446",
  "args": [
    [
      "0xd2826132FBD5962338e2A37DdC5345A6fE3e6640",
      "0xF3B4C77E88998894542A5Df6Fe3FA18F167E8cE2"
    ],
    2
  ],
  "numDeployments": 7,
  "solcInputHash": "4932811d640486976b21bd4b396d2e0c",
  "bytecode": "0x60806040523480156200001157600080fd5b50604051620021cb380380620021cb8339818101604052810190620000379190620004bd565b80825110156200007e576040517f08c379a0000000000000000000000000000000000000000000000000000000008152600401620000759062000584565b60405180910390fd5b8060028190555060005b82518110156200028b57600073ffffffffffffffffffffffffffffffffffffffff16838281518110620000c057620000bf620005a6565b5b602002602001015173ffffffffffffffffffffffffffffffffffffffff161480620001515750600160008483815181106200010057620000ff620005a6565b5b602002602001015173ffffffffffffffffffffffffffffffffffffffff1673ffffffffffffffffffffffffffffffffffffffff16815260200190815260200160002060009054906101000a900460ff165b1562000189576040517f1d30de0400000000000000000000000000000000000000000000000000000000815260040160405180910390fd5b6001806000858481518110620001a457620001a3620005a6565b5b602002602001015173ffffffffffffffffffffffffffffffffffffffff1673ffffffffffffffffffffffffffffffffffffffff16815260200190815260200160002060006101000a81548160ff0219169083151502179055506000838281518110620002155762000214620005a6565b5b60200260200101519080600181540180825580915050600190039060005260206000200160009091909190916101000a81548173ffffffffffffffffffffffffffffffffffffffff021916908373ffffffffffffffffffffffffffffffffffffffff160217905550808060010191505062000088565b505050620005d5565b6000604051905090565b600080fd5b600080fd5b600080fd5b6000601f19601f8301169050919050565b7f4e487b7100000000000000000000000000000000000000000000000000000000600052604160045260246000fd5b620002f882620002ad565b810181811067ffffffffffffffff821117156200031a5762000319620002be565b5b80604052505050565b60006200032f62000294565b90506200033d8282620002ed565b919050565b600067ffffffffffffffff82111562000360576200035f620002be565b5b602082029050602081019050919050565b600080fd5b600073ffffffffffffffffffffffffffffffffffffffff82169050919050565b6000620003a38262000376565b9050919050565b620003b58162000396565b8114620003c157600080fd5b50565b600081519050620003d581620003aa565b92915050565b6000620003f2620003ec8462000342565b62000323565b9050808382526020820190506020840283018581111562000418576200041762000371565b5b835b81811015620004455780620004308882620003c4565b8452602084019350506020810190506200041a565b5050509392505050565b600082601f830112620004675762000466620002a8565b5b815162000479848260208601620003db565b91505092915050565b6000819050919050565b620004978162000482565b8114620004a357600080fd5b50565b600081519050620004b7816200048c565b92915050565b60008060408385031215620004d757620004d66200029e565b5b600083015167ffffffffffffffff811115620004f857620004f7620002a3565b5b62000506858286016200044f565b92505060206200051985828601620004a6565b9150509250929050565b600082825260208201905092915050565b7f496e76616c6964206e756d626572206f66206f776e6572730000000000000000600082015250565b60006200056c60188362000523565b9150620005798262000534565b602082019050919050565b600060208201905081810360008301526200059f816200055d565b9050919050565b7f4e487b7100000000000000000000000000000000000000000000000000000000600052603260045260246000fd5b611be680620005e56000396000f3fe608060405234801561001057600080fd5b506004361061009e5760003560e01c8063a5fc912711610066578063a5fc912714610194578063c01a8c84146101b0578063c2ed2b05146101cc578063ccbe7696146101fe578063ccf60e011461021c5761009e565b8063025e7c27146100a35780632f54bf6e146100d35780633f9b250a1461010357806380f59a65146101335780639ace38c214610163575b600080fd5b6100bd60048036038101906100b89190611260565b61023a565b6040516100ca91906112ce565b60405180910390f35b6100ed60048036038101906100e89190611315565b610279565b6040516100fa919061135d565b60405180910390f35b61011d60048036038101906101189190611260565b610299565b60405161012a9190611466565b60405180910390f35b61014d60048036038101906101489190611488565b6104d6565b60405161015a919061135d565b60405180910390f35b61017d60048036038101906101789190611260565b610505565b60405161018b9291906114c8565b60405180910390f35b6101ae60048036038101906101a991906116ef565b610706565b005b6101ca60048036038101906101c59190611260565b610807565b005b6101e660048036038101906101e19190611260565b61098f565b6040516101f593929190611782565b60405180910390f35b610206610b61565b6040516102139190611466565b60405180910390f35b610224610d62565b60405161023191906117dd565b60405180910390f35b6000818154811061024a57600080fd5b906000526020600020016000915054906101000a900473ffffffffffffffffffffffffffffffffffffffff1681565b60016020528060005260406000206000915054906101000a900460ff1681565b6102a16111f5565b6005805490508211156102e0576040517f2e713ed200000000000000000000000000000000000000000000000000000000815260040160405180910390fd5b60056001836102ef9190611827565b81548110610300576102ff61185b565b5b9060005260206000209060030201604051806060016040529081600082018054610329906118b9565b80601f0160208091040260200160405190810160405280929190818152602001828054610355906118b9565b80156103a25780601f10610377576101008083540402835291602001916103a2565b820191906000526020600020905b81548152906001019060200180831161038557829003601f168201915b505050505081526020016001820180546103bb906118b9565b80601f01602080910402602001604051908101604052809291908181526020018280546103e7906118b9565b80156104345780601f1061040957610100808354040283529160200191610434565b820191906000526020600020905b81548152906001019060200180831161041757829003601f168201915b5050505050815260200160028201805461044d906118b9565b80601f0160208091040260200160405190810160405280929190818152602001828054610479906118b9565b80156104c65780601f1061049b576101008083540402835291602001916104c6565b820191906000526020600020905b8154815290600101906020018083116104a957829003601f168201915b5050505050815250509050919050565b60036020528160005260406000206020528060005260406000206000915091509054906101000a900460ff1681565b6004818154811061051557600080fd5b906000526020600020906004020160009150905080600001604051806060016040529081600082018054610548906118b9565b80601f0160208091040260200160405190810160405280929190818152602001828054610574906118b9565b80156105c15780601f10610596576101008083540402835291602001916105c1565b820191906000526020600020905b8154815290600101906020018083116105a457829003601f168201915b505050505081526020016001820180546105da906118b9565b80601f0160208091040260200160405190810160405280929190818152602001828054610606906118b9565b80156106535780601f1061062857610100808354040283529160200191610653565b820191906000526020600020905b81548152906001019060200180831161063657829003601f168201915b5050505050815260200160028201805461066c906118b9565b80601f0160208091040260200160405190810160405280929190818152602001828054610698906118b9565b80156106e55780601f106106ba576101008083540402835291602001916106e5565b820191906000526020600020905b8154815290600101906020018083116106c857829003601f168201915b505050505081525050908060030160009054906101000a900460ff16905082565b600060048054905090506004604051806040016040528084815260200160001515815250908060018154018082558091505060019003906000526020600020906004020160009091909190915060008201518160000160008201518160000190816107719190611a96565b5060208201518160010190816107879190611a96565b50604082015181600201908161079d9190611a96565b50505060208201518160030160006101000a81548160ff02191690831515021790555050506107cb81610807565b807f1d956da65fd9a81e5b2a2da5dd7d3c94b11f9b3fbaea35fc3db3df521eeb4dd6836040516107fb9190611466565b60405180910390a25050565b6004805490508110610845576040517f2e78732500000000000000000000000000000000000000000000000000000000815260040160405180910390fd5b6003600082815260200190815260200160002060003373ffffffffffffffffffffffffffffffffffffffff1673ffffffffffffffffffffffffffffffffffffffff16815260200190815260200160002060009054906101000a900460ff166109155760016003600083815260200190815260200160002060003373ffffffffffffffffffffffffffffffffffffffff1673ffffffffffffffffffffffffffffffffffffffff16815260200190815260200160002060006101000a81548160ff021916908315150217905550610947565b6040517f66345b1100000000000000000000000000000000000000000000000000000000815260040160405180910390fd5b807fef524c298d730e7d5714dbe2fce9d4eca7de755a12628704719170afda39678b60405160405180910390a261097d81610d68565b1561098c5761098b81610e84565b5b50565b6005818154811061099f57600080fd5b90600052602060002090600302016000915090508060000180546109c2906118b9565b80601f01602080910402602001604051908101604052809291908181526020018280546109ee906118b9565b8015610a3b5780601f10610a1057610100808354040283529160200191610a3b565b820191906000526020600020905b815481529060010190602001808311610a1e57829003601f168201915b505050505090806001018054610a50906118b9565b80601f0160208091040260200160405190810160405280929190818152602001828054610a7c906118b9565b8015610ac95780601f10610a9e57610100808354040283529160200191610ac9565b820191906000526020600020905b815481529060010190602001808311610aac57829003601f168201915b505050505090806002018054610ade906118b9565b80601f0160208091040260200160405190810160405280929190818152602001828054610b0a906118b9565b8015610b575780601f10610b2c57610100808354040283529160200191610b57565b820191906000526020600020905b815481529060010190602001808311610b3a57829003601f168201915b5050505050905083565b610b696111f5565b60056001600580549050610b7d9190611827565b81548110610b8e57610b8d61185b565b5b9060005260206000209060030201604051806060016040529081600082018054610bb7906118b9565b80601f0160208091040260200160405190810160405280929190818152602001828054610be3906118b9565b8015610c305780601f10610c0557610100808354040283529160200191610c30565b820191906000526020600020905b815481529060010190602001808311610c1357829003601f168201915b50505050508152602001600182018054610c49906118b9565b80601f0160208091040260200160405190810160405280929190818152602001828054610c75906118b9565b8015610cc25780601f10610c9757610100808354040283529160200191610cc2565b820191906000526020600020905b815481529060010190602001808311610ca557829003601f168201915b50505050508152602001600282018054610cdb906118b9565b80601f0160208091040260200160405190810160405280929190818152602001828054610d07906118b9565b8015610d545780601f10610d2957610100808354040283529160200191610d54565b820191906000526020600020905b815481529060010190602001808311610d3757829003601f168201915b505050505081525050905090565b60025481565b60006004805490508210610da8576040517f2e78732500000000000000000000000000000000000000000000000000000000815260040160405180910390fd5b6000805b600080549050811015610e7557600360008581526020019081526020016000206000808381548110610de157610de061185b565b5b9060005260206000200160009054906101000a900473ffffffffffffffffffffffffffffffffffffffff1673ffffffffffffffffffffffffffffffffffffffff1673ffffffffffffffffffffffffffffffffffffffff16815260200190815260200160002060009054906101000a900460ff1615610e68578180610e6490611b68565b9250505b8080600101915050610dac565b50600254811015915050919050565b6004805490508110610ec2576040517f2e78732500000000000000000000000000000000000000000000000000000000815260040160405180910390fd5b60048181548110610ed657610ed561185b565b5b906000526020600020906004020160030160009054906101000a900460ff1615610f2c576040517f81f9701f00000000000000000000000000000000000000000000000000000000815260040160405180910390fd5b600160048281548110610f4257610f4161185b565b5b906000526020600020906004020160030160006101000a81548160ff021916908315150217905550600060048281548110610f8057610f7f61185b565b5b9060005260206000209060040201600001604051806060016040529081600082018054610fac906118b9565b80601f0160208091040260200160405190810160405280929190818152602001828054610fd8906118b9565b80156110255780601f10610ffa57610100808354040283529160200191611025565b820191906000526020600020905b81548152906001019060200180831161100857829003601f168201915b5050505050815260200160018201805461103e906118b9565b80601f016020809104026020016040519081016040528092919081815260200182805461106a906118b9565b80156110b75780601f1061108c576101008083540402835291602001916110b7565b820191906000526020600020905b81548152906001019060200180831161109a57829003601f168201915b505050505081526020016002820180546110d0906118b9565b80601f01602080910402602001604051908101604052809291908181526020018280546110fc906118b9565b80156111495780601f1061111e57610100808354040283529160200191611149565b820191906000526020600020905b81548152906001019060200180831161112c57829003601f168201915b5050505050815250509050600581908060018154018082558091505060019003906000526020600020906003020160009091909190915060008201518160000190816111959190611a96565b5060208201518160010190816111ab9190611a96565b5060408201518160020190816111c19190611a96565b505050817f1436ef0a63d102072b70744adedc4e9c88487529e51f8624fc3ab50904472f1e60405160405180910390a25050565b60405180606001604052806060815260200160608152602001606081525090565b6000604051905090565b600080fd5b600080fd5b6000819050919050565b61123d8161122a565b811461124857600080fd5b50565b60008135905061125a81611234565b92915050565b60006020828403121561127657611275611220565b5b60006112848482850161124b565b91505092915050565b600073ffffffffffffffffffffffffffffffffffffffff82169050919050565b60006112b88261128d565b9050919050565b6112c8816112ad565b82525050565b60006020820190506112e360008301846112bf565b92915050565b6112f2816112ad565b81146112fd57600080fd5b50565b60008135905061130f816112e9565b92915050565b60006020828403121561132b5761132a611220565b5b600061133984828501611300565b91505092915050565b60008115159050919050565b61135781611342565b82525050565b6000602082019050611372600083018461134e565b92915050565b600081519050919050565b600082825260208201905092915050565b60005b838110156113b2578082015181840152602081019050611397565b60008484015250505050565b6000601f19601f8301169050919050565b60006113da82611378565b6113e48185611383565b93506113f4818560208601611394565b6113fd816113be565b840191505092915050565b6000606083016000830151848203600086015261142582826113cf565b9150506020830151848203602086015261143f82826113cf565b9150506040830151848203604086015261145982826113cf565b9150508091505092915050565b600060208201905081810360008301526114808184611408565b905092915050565b6000806040838503121561149f5761149e611220565b5b60006114ad8582860161124b565b92505060206114be85828601611300565b9150509250929050565b600060408201905081810360008301526114e28185611408565b90506114f1602083018461134e565b9392505050565b600080fd5b7f4e487b7100000000000000000000000000000000000000000000000000000000600052604160045260246000fd5b611535826113be565b810181811067ffffffffffffffff82111715611554576115536114fd565b5b80604052505050565b6000611567611216565b9050611573828261152c565b919050565b600080fd5b600080fd5b600080fd5b600067ffffffffffffffff8211156115a2576115a16114fd565b5b6115ab826113be565b9050602081019050919050565b82818337600083830152505050565b60006115da6115d584611587565b61155d565b9050828152602081018484840111156115f6576115f5611582565b5b6116018482856115b8565b509392505050565b600082601f83011261161e5761161d61157d565b5b813561162e8482602086016115c7565b91505092915050565b60006060828403121561164d5761164c6114f8565b5b611657606061155d565b9050600082013567ffffffffffffffff81111561167757611676611578565b5b61168384828501611609565b600083015250602082013567ffffffffffffffff8111156116a7576116a6611578565b5b6116b384828501611609565b602083015250604082013567ffffffffffffffff8111156116d7576116d6611578565b5b6116e384828501611609565b60408301525092915050565b60006020828403121561170557611704611220565b5b600082013567ffffffffffffffff81111561172357611722611225565b5b61172f84828501611637565b91505092915050565b600082825260208201905092915050565b600061175482611378565b61175e8185611738565b935061176e818560208601611394565b611777816113be565b840191505092915050565b6000606082019050818103600083015261179c8186611749565b905081810360208301526117b08185611749565b905081810360408301526117c48184611749565b9050949350505050565b6117d78161122a565b82525050565b60006020820190506117f260008301846117ce565b92915050565b7f4e487b7100000000000000000000000000000000000000000000000000000000600052601160045260246000fd5b60006118328261122a565b915061183d8361122a565b9250828203905081811115611855576118546117f8565b5b92915050565b7f4e487b7100000000000000000000000000000000000000000000000000000000600052603260045260246000fd5b7f4e487b7100000000000000000000000000000000000000000000000000000000600052602260045260246000fd5b600060028204905060018216806118d157607f821691505b6020821081036118e4576118e361188a565b5b50919050565b60008190508160005260206000209050919050565b60006020601f8301049050919050565b600082821b905092915050565b60006008830261194c7fffffffffffffffffffffffffffffffffffffffffffffffffffffffffffffffff8261190f565b611956868361190f565b95508019841693508086168417925050509392505050565b6000819050919050565b600061199361198e6119898461122a565b61196e565b61122a565b9050919050565b6000819050919050565b6119ad83611978565b6119c16119b98261199a565b84845461191c565b825550505050565b600090565b6119d66119c9565b6119e18184846119a4565b505050565b5b81811015611a05576119fa6000826119ce565b6001810190506119e7565b5050565b601f821115611a4a57611a1b816118ea565b611a24846118ff565b81016020851015611a33578190505b611a47611a3f856118ff565b8301826119e6565b50505b505050565b600082821c905092915050565b6000611a6d60001984600802611a4f565b1980831691505092915050565b6000611a868383611a5c565b9150826002028217905092915050565b611a9f82611378565b67ffffffffffffffff811115611ab857611ab76114fd565b5b611ac282546118b9565b611acd828285611a09565b600060209050601f831160018114611b005760008415611aee578287015190505b611af88582611a7a565b865550611b60565b601f198416611b0e866118ea565b60005b82811015611b3657848901518255600182019150602085019450602081019050611b11565b86831015611b535784890151611b4f601f891682611a5c565b8355505b6001600288020188555050505b505050505050565b6000611b738261122a565b91507fffffffffffffffffffffffffffffffffffffffffffffffffffffffffffffffff8203611ba557611ba46117f8565b5b60018201905091905056fea26469706673582212206c2ac0243cf4f5843c742744c6b35f76686bf5aa61501039335d35321d41331c64736f6c63430008180033",
  "devdoc": {
    "kind": "dev",
    "methods": {},
    "version": 1
  },
  "userdoc": {
    "kind": "user",
    "methods": {},
    "version": 1
  },
  "storageLayout": {
    "storage": [
      {
        "astId": 29,
        "contract": "contracts/DocumentStorage.sol:DocumentStorage",
        "label": "owners",
        "offset": 0,
        "slot": "0",
        "type": "t_array(t_address)dyn_storage"
      },
      {
        "astId": 33,
        "contract": "contracts/DocumentStorage.sol:DocumentStorage",
        "label": "isOwner",
        "offset": 0,
        "slot": "1",
        "type": "t_mapping(t_address,t_bool)"
      },
      {
        "astId": 35,
        "contract": "contracts/DocumentStorage.sol:DocumentStorage",
        "label": "num_confirmation",
        "offset": 0,
        "slot": "2",
        "type": "t_uint256"
      },
      {
        "astId": 41,
        "contract": "contracts/DocumentStorage.sol:DocumentStorage",
        "label": "isConfirmed",
        "offset": 0,
        "slot": "3",
        "type": "t_mapping(t_uint256,t_mapping(t_address,t_bool))"
      },
      {
        "astId": 45,
        "contract": "contracts/DocumentStorage.sol:DocumentStorage",
        "label": "transactions",
        "offset": 0,
        "slot": "4",
        "type": "t_array(t_struct(Transaction)62_storage)dyn_storage"
      },
      {
        "astId": 49,
        "contract": "contracts/DocumentStorage.sol:DocumentStorage",
        "label": "documents",
        "offset": 0,
        "slot": "5",
        "type": "t_array(t_struct(Document)56_storage)dyn_storage"
      }
    ],
    "types": {
      "t_address": {
        "encoding": "inplace",
        "label": "address",
        "numberOfBytes": "20"
      },
      "t_array(t_address)dyn_storage": {
        "base": "t_address",
        "encoding": "dynamic_array",
        "label": "address[]",
        "numberOfBytes": "32"
      },
      "t_array(t_struct(Document)56_storage)dyn_storage": {
        "base": "t_struct(Document)56_storage",
        "encoding": "dynamic_array",
        "label": "struct DocumentStorage.Document[]",
        "numberOfBytes": "32"
      },
      "t_array(t_struct(Transaction)62_storage)dyn_storage": {
        "base": "t_struct(Transaction)62_storage",
        "encoding": "dynamic_array",
        "label": "struct DocumentStorage.Transaction[]",
        "numberOfBytes": "32"
      },
      "t_bool": {
        "encoding": "inplace",
        "label": "bool",
        "numberOfBytes": "1"
      },
      "t_mapping(t_address,t_bool)": {
        "encoding": "mapping",
        "key": "t_address",
        "label": "mapping(address => bool)",
        "numberOfBytes": "32",
        "value": "t_bool"
      },
      "t_mapping(t_uint256,t_mapping(t_address,t_bool))": {
        "encoding": "mapping",
        "key": "t_uint256",
        "label": "mapping(uint256 => mapping(address => bool))",
        "numberOfBytes": "32",
        "value": "t_mapping(t_address,t_bool)"
      },
      "t_string_storage": {
        "encoding": "bytes",
        "label": "string",
        "numberOfBytes": "32"
      },
      "t_struct(Document)56_storage": {
        "encoding": "inplace",
        "label": "struct DocumentStorage.Document",
        "members": [
          {
            "astId": 51,
            "contract": "contracts/DocumentStorage.sol:DocumentStorage",
            "label": "name",
            "offset": 0,
            "slot": "0",
            "type": "t_string_storage"
          },
          {
            "astId": 53,
            "contract": "contracts/DocumentStorage.sol:DocumentStorage",
            "label": "uri",
            "offset": 0,
            "slot": "1",
            "type": "t_string_storage"
          },
          {
            "astId": 55,
            "contract": "contracts/DocumentStorage.sol:DocumentStorage",
            "label": "timestamp",
            "offset": 0,
            "slot": "2",
            "type": "t_string_storage"
          }
        ],
        "numberOfBytes": "96"
      },
      "t_struct(Transaction)62_storage": {
        "encoding": "inplace",
        "label": "struct DocumentStorage.Transaction",
        "members": [
          {
            "astId": 59,
            "contract": "contracts/DocumentStorage.sol:DocumentStorage",
            "label": "document",
            "offset": 0,
            "slot": "0",
            "type": "t_struct(Document)56_storage"
          },
          {
            "astId": 61,
            "contract": "contracts/DocumentStorage.sol:DocumentStorage",
            "label": "executed",
            "offset": 0,
            "slot": "3",
            "type": "t_bool"
          }
        ],
        "numberOfBytes": "128"
      },
      "t_uint256": {
        "encoding": "inplace",
        "label": "uint256",
        "numberOfBytes": "32"
      }
    }
  }
}